:100000000BEF09F06896000C046ED8CF05F0E0CF36
:1000100006F00001E9CF0CF0EACF07F0E1CF08F0DD
:10002000E2CF09F0D9CF0AF0DACF0BF0F3CF12F01C
:10003000F4CF13F0FACF14F000C00EF001C00FF0AF
:1000400002C010F003C011F0A0AA2AEF00F0A1BA7C
:100050000FEF08F00EC000F00FC001F010C002F06A
:1000600011C003F00CC0E9FF07C0EAFF078E08C00B
:10007000E1FF09C0E2FF0AC0D9FF0BC0DAFF12C0DE
:10008000F3FF13C0F4FF14C0FAFF045006C0E0FFF2
:1000900005C0D8FF1000F76AA60FF66E000EF72213
:1000A0000900F5501200000302FFFFFFFFFFFFFFF2
:1000B000FFFFFFFFFFFFF76AC60FF66E000EF72285
:1000C0000900F550120000FF02FFFFFFFFFFFFFFD6
:1000D000FFFFFFFFFFFFF76AE60FF66E000EF72245
:1000E0000900F55012004000080040000000000028
:1000F0000000000000000000000000000000000000
:1001000000000000000007AE03D0F2CF0DF0F29E19
:10011000F76A280FF66E010EF7220900F55007AEB8
:1001200002D00DBEF28E1200400000004000000020
:1001300000000000000000000000000000000000BF
:100140000000000000000000F76A580FF66E010E74
:10015000F7220900F5501200090243000201008055
:10016000320904000001020201000524001001040C
:10017000240202052406000105240100010705816F
:10018000030800FA09040100020A00000007050242
:10019000024000010705820240000100F76AAC0F2F
:1001A000F66E010EF7220900F55012000200F76A00
:1001B000BE0FF66E010EF7220900F550120012175D
:1001C0001B20FFFFFFFFF76AD60FF66E010EF72226
:1001D0000900F550120012011001020000406104F4
:1001E0003300000101020001F76AF80FF66E010EFC
:1001F000F7220900F5501200040309040803430024
:1002000043005300180353004500520049004100C9
:100210004C002000440045004D004F006D92699451
:1002200068A402D06894FCD71BEF08F0400E0401CC
:10023000016F040E036F180E026F880E006F046BBF
:10024000040E076F580E066F0001000C70A002D05C
:10025000EDDF7090689A24EF08F06A6A68922AEFDE
:1002600008F0A391A2BFA381A29FA251100803E2AC
:10027000000E016E21D0A3A110D0036AA251F2CFCB
:10028000A4F0F29E08DFA4BFF28EFF0802E1000E88
:1002900001D0010E016E10D00FD0036AA251F2CF2F
:1002A000A4F0F29E08DFA4BFF28EFF0802E1000E68
:1002B00001D0010E016E00D0000CA751A903F3CFAD
:1002C00001F0F4CF00F0AA03F3500026A851A903CF
:1002D000F3500020026E000C036AA151700FE96E0A
:1002E0000F0E0320EA6EEF6AA1C0A2F0BADF01523E
:1002F00022E0A86BA1C0A7F0AA6B080EA96FDDDFF2
:1003000001C0E9FF040E0224EA6EEF6AA86BA1C0E7
:10031000A7F0AA6B080EA96FD0DF02C0A3F001C03E
:10032000A2F0040EA227000EA323A2C0E9FF040E30
:10033000A325EA6EEF6A000C010EA06FA0510F0812
:1003400005E3A0C0A1F0C8DFA02BF8D7000C296AF4
:10035000286A250E276E800E266E2A6A2B6A080EE2
:100360002C6E7B6B7A912E6A2D6A766B7791000CDE
:10037000966B965101080AE3036A9651240FE96EC1
:10038000000E0320EA6EEF6A962BF3D7E0DF186ABF
:10039000010E196E176A000C6A6A686A9F0E6B6E0E
:1003A0003D0E696E6E6AC8DFE3DF160E706E68A6DA
:1003B00002D028DEFCD76D9839DF030E1F6E30EFB8
:1003C00008F0698468986D8236EF08F0689C3CEF0D
:1003D00008F09BC020F0000CFF0E206E000C996B03
:1003E000235235E099513F0832E31A5005E0020AE2
:1003F0000DE0010A15E01ED0036A2250F2CF9BF0F7
:10040000F29EA2DE9BBFF28E9A6F14D0036A225036
:10041000F2CF9BF0F29EE8DE9BBFF28E9A6F0AD07D
:10042000036A2250F2CF9BF0F29ECDDE9BBFF28E8C
:100430009A6F00D0222A23069951992B580FE96E02
:10044000040EEA6ED8B0EA2A9AC0EFFFC9D7235249
:1004500004E19951400801E0176A99C09BF0B9DFA7
:10046000000C226A1A6A04011B51010A000107E00C
:10047000030A0AE0010A0BE0220A20E03AD0120E39
:10048000236E030E1A6E37D0430E236E34D0020E45
:100490001A6E036A04011A511B0FE96E000E032045
:1004A000EA6EEFCF22F0036A2250F2CF98F0F29E6C
:1004B00000019ADE98BFF28E236E1DD0036A0401FC
:1004C0001A51F2CF98F0F29E000171DE98BFF28EC1
:1004D000226E223C01D00BD0036A2250F2CF98F05A
:1004E000F29E32DE98BFF28E236E05D002D074DF0A
:1004F0000ED072DF0CD004011F5305E123501E5DA6
:1005000002E21EC423F0010E176E000168DFC9EF7E
:1005100003F0985304E1040E1F6E0EDFE7D0050EC2
:100520001F6E040E9B6F980E9A6F010E996F995172
:100530000F08D8A0DBD099C0A1F0CEDE9C6B036A77
:100540009951F2CFA0F0F29EB6DDA0BFF28EFF0867
:1005500063E0040E9C6FD8909935036AF2CFA0F047
:10056000F29ED1DD0900F5CF03F0A0BFF28E9D6FA2
:1005700003C09EF0A86B99C0A7F0AA6B080EA96FE4
:100580009CDE01C0A0F0010E0124016E000E0220CD
:10059000036E01C0E9FF040E0324EA6E9DC0EFFF65
:1005A000A86B99C0A7F0AA6B080EA96F86DE01C0E0
:1005B000A0F0020E0124016E000E0220036E01C0A5
:1005C000E9FF040E0324EA6E9BC0ECFFED529AC0D3
:1005D000EFFFD8909935036AF2CFA0F0F29E93DD39
:1005E0000900F5CF03F0A0BFF28E9A2703509B239A
:1005F000880E9F6F9EB19F819EB39F83A86B99C009
:10060000A7F0AA6B080EA96F58DE01C0E9FF040E1F
:100610000224EA6E9FC0EFFF036A9951F2CFA0F067
:10062000F29E39DDA0BFF28EFF0845E09C83A86BE7
:1006300099C0A7F0AA6B080EA96F3FDE02C0A1F017
:1006400001C0A0F0040EA027000EA123020EA025D9
:10065000016E000EA121036E01C0E9FF040E032408
:10066000EA6E9BC0ECFFED529AC0EFFFD89099352F
:10067000036AF2CFA0F0F29E2EDD0900F5CF03F061
:10068000A0BFF28E9A2703509B23A86B99C0A7F0B6
:10069000AA6B080EA96F11DE02C0A1F001C0A0F084
:1006A000040EA027000EA123A0C0E9FF040EA1257F
:1006B000EA6E400EEF6E9C51060802E10E0E9C6F32
:1006C000036A9951F2CFA0F0F29EE5DCA0BFF28E52
:1006D0000108D8A49C89036A9951700FE96E0F0E26
:1006E0000320EA6E9CC0EFFF992B21D7C3EF03F0E4
:1006F00004011951000A00010DE0010A14E0020A88
:100700001EE0060A27E0030A2CE00E0A2CE0010A8C
:1007100030E03DD019C058F40401596B020E0001BD
:100720009B6F57DE36D004011A2D06D0010E191624
:1007300000019B6B4EDE02D000014EDE2AD0040188
:100740001A2D05D0198200019B6B43DE02D00001F7
:1007500043DE1FD0020E176E1AC421F09B6B39DEE8
:1007600018D07FD616D018C058F4010E9B6F31DE1A
:1007700010D004011A51010808E31AC418F01AC471
:1007800098F00001C6D69B6B24DE000102D024DE67
:1007900000D042EF05F018C098F004011951000A8A
:1007A000000105E00A0A0BE0010A2BE03CD004013D
:1007B000586B596B020E00019B6F0BDE36D09853BD
:1007C0001EE0010E985D036AF2CF99F0F29EE6DC1E
:1007D00099BFF28E016E04011C5DD8A002D0000109
:1007E0000ED0036A1C51240FE96E000E0320EA6E3E
:1007F000EFCF58F4010E00019B6FEBDD01D0ECDD73
:1008000014D098530EE0036A04011C51240FE96EC2
:10081000000E0320EA6E1AC4EFFF00019B6BD9DDC6
:1008200001D0DADD02D0D8DD00D042EF05F0999199
:1008300098BF9981989F99A117D0A86B98C0A7F0ED
:10084000AA6B080EA96F39DD02C09BF001C09AF0B7
:10085000040E9A27000E9B239AC0E9FF040E9B25E5
:10086000EA6E880EEF6E0DD0A86B98C0A7F0AA6B49
:10087000080EA96F22DD01C0E9FF040E0224EA6E12
:10088000EF6AB7EF04F0999198BF9981989F99A169
:1008900017D0A86B98C0A7F0AA6B080EA96F0DDD42
:1008A00002C09BF001C09AF0040E9A27000E9B2311
:1008B0009AC0E9FF040E9B25EA6E840EEF6E0ED0FF
:1008C000A86B98C0A7F0AA6B080EA96FF6DC01C050
:1008D000E9FF040E0224EA6E840EEF6EBDEF04F011
:1008E000999198BF9981989F99A117D0A86B98C0AA
:1008F000A7F0AA6B080EA96FE0DC02C09CF001C053
:100900009BF0040E9B27000E9C239BC0E9FF040E66
:100910009C25EA6EEFCF9AF00ED0A86B98C0A7F096
:10092000AA6B080EA96FC9DC01C0E9FF040E0224FE
:10093000EA6EEFCF9AF09AAF02D09AB502D0000ECD
:1009400001D0010E016EC7EF04F01CC4A2F089DCD7
:10095000015229E004011951010A000105E0020ACF
:1009600009E0030A0DE01DD01CC498F060D79B6B12
:1009700030DD19D01CC498F086D79B6B2ADD13D0CC
:100980000401586B596B1CC498F00001A9D701529F
:1009900004E0010E0401586F0001020E9B6F19DD87
:1009A00002D01ADD00D042EF05F0FE0E206E000CE2
:1009B00004011C2D01D002D01C5349E11951000A39
:1009C00000010BE0010A0DE0210A1CE0010A1FE012
:1009D000030A2EE0010A31E037D0010E7D6FE5DF1A
:1009E00035D0040EEA6E580EE96EE26A2F0EE16E03
:1009F000080E016EE6CFEEFF012EFCD71EC49BF061
:100A0000E8DC24D0020E7D6F7A81CFDF1FD0040E88
:100A1000EA6E580EE96EE26A260EE16E070E016E6E
:100A2000E6CFEEFF012EFCD7070E9B6FD2DC0ED077
:100A30001AC47BF09B6BCDDC09D01AC42EF01BC40A
:100A40002DF09B6BC6DC02D0C7DC00D00401000196
:100A500042EF05F0176A040118517F0B000A0001EC
:100A600007E0010A07E0030A07E0230A07E008D0CD
:100A70003FD608D090D606D068D704D099D702D0F8
:100A8000ABDC00D064EF07F0A86B98C0A7F0AA6BAE
:100A9000080EA96F12DC01C0E9FF040E0224EA6E01
:100AA000EFCF9AF09951020806E19AAD02D0996B06
:100AB00002D0010E996F995103081AE1840E9A6FC2
:100AC000A86B98C0A7F0AA6B080EA96F5DEC01F0A7
:100AD00002C09EF001C09DF0040E9D27000E9E23D3
:100AE0009DC0E9FF040E9E25EA6E840EEF6E07D0CE
:100AF000992D03D0C80E9A6F02D0880E9A6FD890A5
:100B00009835036AF2CF9DF0F29E83EC00F0090065
:100B1000F5CF03F09DBFF28E9B6F03C09CF0A86BD6
:100B200098C0A7F0AA6B080EA96F5DEC01F001C098
:100B30009DF0010E0124016E000E0220036E01C023
:100B4000E9FF040E0324EA6E9BC0EFFF9CB19A817B
:100B50009CB39A83A86B98C0A7F0AA6B080EA96FE4
:100B60005DEC01F001C0E9FF040E0224EA6E9AC0B8
:100B7000EFFF000C036AA651700FE96E0F0E032001
:100B8000EA6EEF5219E0A86BA6C0A7F0AA6B080E98
:100B9000A96F5DEC01F002C0A8F001C0A7F0040E3F
:100BA000A727000EA823A7C0E9FF040EA825EA6E18
:100BB000EFCFA7F0A7AF02D0000E01D0010E016E5B
:100BC000000CA1C0A6F0D6DF0152D8B47CD0A86B2F
:100BD000A1C0A7F0AA6B080EA96F5DEC01F002C0DE
:100BE000A7F001C0A6F0040EA627000EA723010E51
:100BF000A625016E000EA721036E01C0E9FF040EB9
:100C00000324EA6EA2C0EFFFA45102081EE1A86B04
:100C1000A1C0A7F0AA6B080EA96F5DEC01F002C09D
:100C2000A7F001C0A6F0040EA627000EA723A6C0B9
:100C3000E9FF040EA725EA6EEFCFA5F0A5AD02D01F
:100C4000A46B02D0010EA46F18D0A451040815E1C2
:100C5000A86BA1C0A7F0AA6B080EA96F5DEC01F00C
:100C600001C0E9FF040E0224EA6EEFCFA5F0A5ADA6
:100C700003D0010EA46F01D0A46BA42D03D0C80E25
:100C8000A56F02D0880EA56FA3B1A581A3B3A583DC
:100C9000A86BA1C0A7F0AA6B080EA96F5DEC01F0CC
:100CA00002C0A7F001C0A6F0040EA627000EA723DD
:100CB000A6C0E9FF040EA725EA6EA5C0EFFF010E4E
:100CC000016E03D000D0000E016E000C7D51010AB0
:100CD00003E0030A13E024D0EA6A2F0EE96E040E43
:100CE000E26E180EE16E080E016EE6CFEEFF012EE9
:100CF000FCD79B6BE9EC01F07D6B14D0EA6A260E01
:100D0000E96E040EE26E180EE16E070E016EE6CF7C
:100D1000EEFF012EFCD77D6B9B6BE9EC01F002D05E
:100D20007D6B00D0BEEF06F0A86B99C0A7F0AA6B50
:100D3000080EA96F5DEC01F002C09BF001C09AF0B3
:100D4000010E0124016E000E0220036E01C0E9FFB6
:100D5000040E0324EA6E036AEFCF01F003C002F031
:100D6000B7EF06F07781796B020E996FDDD701C07E
:100D700078F0C3EF06F0985302E1A8D704D0985159
:100D8000020801E1EFD7000C99C06EFF995303E010
:100D9000040E1F6E02D0020E1F6ED4EF06F0186A0A
:100DA000176A21C099F0F0D743EF07F099C0A6F079
:100DB000E1DE015246E0A86B99C0A7F0AA6B080ECD
:100DC000A96F5DEC01F002C0A2F001C0A1F0040E19
:100DD000A127000EA223020EA125016E000EA22162
:100DE000036E01C0E9FF040E0324EA6EECCF03F0AA
:100DF000ED52EFCF9FF003C0A0F0A0C0EAFF9FC06C
:100E0000E9FF9BC0E2FF9AC0E1FF9DC002F09CC0D9
:100E100001F0015202E0022A02D0025206E0E6CFBF
:100E2000EEFF012EFCD7022EFAD799C0A1F09DC08B
:100E3000A3F09CC0A2F09EC0A4F0C3DE015003D07A
:100E400000D0000E016E000C020E996F9B6B370EE6
:100E50009A6F9D6B76C09CF0020E9E6FA7DF76C0E6
:100E60007CF0766B000C765301E0EEDF48EF07F084
:100E700098530AE1172C03D0EFEC01F004D017507F
:100E8000020801E18CD704D09851020801E1EBD7A8
:100E9000000C1E30966F963396331F0E96171E5217
:100EA00042E1040100513C0B0001976F430E040125
:100EB00000170001975134081EE104010451800B12
:100EC00001E0046B0001C6D56D98203C05D0986BFD
:100ED000030E996FD9DD0ED0986B020E996FD4DD99
:100EE0002050FE0807E0A16BA36B20C0A2F0040E07
:100EF000A46F67DE17D09751040814E1986B3BDFAD
:100F0000986B020E996FC0DD2050FE080AE0203C6D
:100F100001D007D0A16BA36B20C0A2F0010EA46F7B
:100F200050DE00D07AD01E50040814E1430E0401B4
:100F30000417FF0E206E0001986B9ADF203C01D051
:100F400008D0A16BA36B20C0A2F0020EA46F39DE03
:100F500000D063D01EB42AD0A86B96C0A7F0AA6BAD
:100F6000080EA96F5DEC01F001C098F001C001F01E
:100F7000040E0224036E01C098F0996FA86B96C00E
:100F8000A7F0AA6B080EA96F5DEC01F001C0E9FFA4
:100F9000040E0224EA6EEF50430B99C0EAFF98C09A
:100FA000E9FFEF6E96C098F0E6DE37D0A86B96C0EA
:100FB000A7F0AA6B080EA96F5DEC01F002C099F0D2
:100FC00001C098F0040E9827000E992398C001F0F4
:100FD000040E9925036E98C098F0996FA86B96C07F
:100FE000A7F0AA6B080EA96F5DEC01F002C09BF0A0
:100FF00001C09AF0040E9A27000E9B239AC0E9FFC5
:10100000040E9B25EA6EEF50430B99C0EAFF98C08F
:10101000E9FFEF6E96C098F02BDF46EF08F0A19A3B
:101020001F5201E139D0685237E068A404D069A4A6
:1010300002D00EEF01F06DA201D02ED068AA04D02C
:1010400069AA02D026EF01F068A204D069A202D0FA
:101050002DEF01F068A004D069A002D0CCEF01F020
:1010600068A804D069A802D0E1EF01F068AC04D010
:1010700069AC02D0E6EF01F0956B68A608D069A6CE
:1010800006D06CCF1EF002EC00F003D701D004D0E4
:101090009551952B0308F1E22AEF00F06D6A696A19
:1010A000080E6F6E94503009946E1F6A166AF2BE75
:1010B000168EF29EB8EC01F016BEF28E61EF08F0CB
:1010C000EDD786EF08F0166AF2BE168EF29EB8ECE7
:1010D00001F016BEF28E6D6A140E6F6E696A6D862F
:1010E000010E1F6E77EF08F06DB601D0ECD71F2C04
:1010F0000BD06DBA09D0686A696AA08AC00EF21274
:10110000110E696E020E1F6E000CDAD7EDDF1F5054
:101110000208FCE126EF09F01850016E28EF09F0F3
:101120007791166AF2BE168EF29E020E986F996F34
:10113000ABDC16BEF28EAEEF08F077B101D0FDD772
:101140007951792BA00FE96E040EEA6ED8B0EA2A25
:10115000EFCF7FF07851795D01E3E2D77FC001F0F6
:101160002DEF09F08191F2BE8181F29E76513E0809
:1011700002E23E0E766F7651762B036A370FE96EE8
:10118000000E0320EA6E80C0EFFFF29E81B1F28E66
:10119000166AF2BE168EF29E020EA66FEBDC16BE2B
:1011A000F28E015207E0166AF2BE168EF29E4CDEF7
:1011B00016BEF28EF5EF08F076513E0813E2166A7D
:1011C000F2BE168EF29E020EA66FD4DC16BEF28E12
:1011D000015207E0166AF2BE168EF29E35DE16BE8A
:1011E000F28EEAD77FC080F0BDD7000CEA6A800E8D
:1011F000E96EEF500EE0010E016E006A002EFED780
:10120000012EFBD74A0E006E002EFED700D0EF2E27
:10121000F2D745EF09F0F86AD09E078EEA6AE96ACC
:101220001F6A236A766B7D6BC150C00B0F09C16EBC
:10123000070EB46E1B6A040E1C6E0C0E1D6E000EA3
:10124000926E926A896AA7EC01F05FD74DDF64D78E
:1012500001521DE077A114D070D701C07EF07E51FD
:101260004E0806E1926A100E896E6E0E7F6FA4DF43
:101270007E51460805E1660E7F6F9EDF926A896A9D
:10128000020E7F6F960E806FB1D77F2FFBD7DED710
:02129000030059
:020000040030CA
:0E00000024CE3E1E008781000FC00FE00F408F
:00000001FF
;PIC18F2550
;CRC=5D10  CREATED="02-jul.-20 20:10"
