:10000000F9EF08F068961200046ED8CF05F0E0CF43
:1000100006F00001E9CF0CF0EACF07F0E1CF08F0DD
:10002000E2CF09F0D9CF0AF0DACF0BF0F3CF12F01C
:10003000F4CF13F0FACF14F0F5CF15F0F6CF16F099
:10004000F7CF17F000C00EF001C00FF002C010F0A3
:1000500003C011F0A0AA30EF00F0A1BA5EEF08F0E3
:100060000EC000F00FC001F010C002F011C003F08C
:100070000CC0E9FF07C0EAFF078E08C0E1FF09C016
:10008000E2FF0AC0D9FF0BC0DAFF12C0F3FF13C0B2
:10009000F4FF14C0FAFF15C0F5FF16C0F6FF17C035
:1000A000F7FF045006C0E0FF05C0D8FF1000F76A54
:1000B000BE0FF66E000EF7220900F5501200000385
:1000C00002FFFFFFFFFFFFFFFFFFFFFFFFFFF76ADA
:1000D000DE0FF66E000EF7220900F550120000FF49
:1000E00002FFFFFFFFFFFFFFFFFFFFFFFFFFF76ABA
:1000F000FE0FF66E000EF7220900F55012004000C8
:100100000B004000000000000000000000000000A4
:100110000000000000000000000000000000F76A7E
:100120002E0FF66E010EF7220900F5501200400066
:10013000000040000000000000000000000000007F
:100140000000000000000000000000000000F76A4E
:100150005E0FF66E010EF7220900F550120009023B
:100160004300020100803209040000010202010084
:1001700005240010010424020205240600010524C0
:10018000010001070581030B00FA09040100020ABE
:10019000000000070502024000010705820240003E
:1001A0000100F76AB20FF66E010EF7220900F55052
:1001B00012000200F76AC40FF66E010EF722090062
:1001C000F550120012171B20FFFFFFFFF76ADC0F2C
:1001D000F66E010EF7220900F5501200120110010F
:1001E0000200004005240B00000101020001F76A33
:1001F000FE0FF66E010EF7220900F55012000403FF
:100200000904080343004300530020034300430054
:1002100053002000550053004200200074006F007E
:10022000200055004100520054006D92699468A46A
:1002300002D06894FCD768986BEF08F0400E040178
:10024000016F040E0001C66F180EC6C003F4E8CF9C
:1002500002F4880E0401006F046B040E076F580E41
:10026000066F0001120070A002D0E8DF7090689A5B
:1002700072EF08F06A6A689277EF08F0D291D1BF06
:10028000D281D19FD151100803E2000E016E16D029
:10029000D2A10BD0036AD1510ADFFF0802E1000EA0
:1002A00001D0010E016E0AD009D0036AD1510FDFCF
:1002B000FF0802E1000E01D0010E016E1200D751BD
:1002C000D903F3CF01F0F4CF00F0DA03F3500026A6
:1002D000D851D903F3500020026E1200036AD051A6
:1002E000700FE96E0F0E0320EA6EEF6AD0C0D1F0F6
:1002F000C5DF015222E0D86BD0C0D7F0DA6B080E10
:10030000D96FDDDF01C0E9FF040E0224EA6EEF6A57
:10031000D86BD0C0D7F0DA6B080ED96FD0DF02C02F
:10032000D2F001C0D1F0040ED127000ED223D1C0EB
:10033000E9FF040ED225EA6EEF6A1200010ECF6FBC
:10034000CF510F0805E3CFC0D0F0C8DFCF2BF8D7CF
:100350001200C96BC86B250EC76F800EC66FC6C072
:100360002BF0C7C02CF02D6A2E6AC66BC6C02FF0CA
:10037000C66BC6C030F0080EC66FC6C031F0B66B93
:10038000B591336A326AB46B1E90B76B1200286A5B
:10039000276AC56BC55101080AE3036AC551290FD5
:1003A000E96E000E0320EA6EEF6AC52BF3D7D1DFAA
:1003B0001B6A010E1C6E1A6A12006B6A696A6A6A0D
:1003C000686A6E6A706ABADFE2DF160E706E68A63F
:1003D00002D018DEFCD79F0E6B6E3D0E696E6D98D5
:1003E0002DDF030E226E7CEF08F0698469986D8220
:1003F00081EF08F0689C86EF08F0CAC023F0120075
:1004000023681200C86B275028102DE0C8513F0800
:100410002AE31D5005E0020A09E0010A0DE011D0AF
:1004200026C003F0255093DEC96F0BD026C003F021
:100430002550DDDEC96F05D026C003F02550C6DE8D
:10044000C96F252AD8B4262A2750D8B428062706EB
:10045000C851C82B580FE96E040EEA6ED8B0EA2ACC
:10046000C9C0EFFFD0D72750281004E1C851400879
:1004700001E01A6AC8C0CAF0C0DF1200C76B266A62
:10048000256A1D6A04011B51010A000107E0030AE5
:100490000BE0010A0DE0220A25E03DD0286A120E89
:1004A000276E030E1D6E39D0286A430E276E35D095
:1004B000020E1D6EC76B04011A510001C75D09E2EF
:1004C00026C003F0255093DE2526000E2622C72BDA
:1004D000F2D726C003F025508ADE036A276E03C0D8
:1004E00028F01BD0036A04011A51000163DE036A7D
:1004F000256E03C026F0253C02D026520AE026C015
:1005000003F0255024DE036A276E03C028F005D0CF
:1005100002D076DF11D074DF0FD004011F5308E141
:10052000285203E127501E5D03E2286A1EC427F00B
:10053000010E1A6E000166DFC4EF03F0C75304E139
:10054000040E226EFBDECBD0050E226E040ECA6FA7
:10055000980EC96F010EC86FC8510F08D8A0BFD040
:10056000C8C0D0F0BBDECB6B036AC851B0DDFF085A
:100570005BE0040ECB6FD890C835036AD0DD09006C
:10058000F5CF03F0CC6F03C0CDF0D86BC8C0D7F067
:10059000DA6B080ED96F93DE01C0CFF0010E012493
:1005A000016E000E0220036E01C0E9FF040E032459
:1005B000EA6ECCC0EFFFD86BC8C0D7F0DA6B080E7C
:1005C000D96F7DDE01C0CFF0020E0124016E000E56
:1005D0000220036E01C0E9FF040E0324EA6ECAC0C4
:1005E000ECFFED52C9C0EFFFD890C835036A97DD24
:1005F0000900F5CF03F0C9270350CA23880ECE6F38
:10060000CDA101D0CE81CDA301D0CE83D86BC8C0FF
:10061000D7F0DA6B080ED96F52DE01C0E9FF040E85
:100620000224EA6ECEC0EFFF036AC85140DDFF0826
:1006300040E0CB83D86BC8C0D7F0DA6B080ED96F17
:100640003EDE02C0D0F001C0CFF0040ECF27000E76
:10065000D023020ECF25016E000ED021036E01C003
:10066000E9FF040E0324EA6ECAC0ECFFED52C9C0D4
:10067000EFFFD890C835036A3ADD0900F5CF03F0E3
:10068000C9270350CA23D86BC8C0D7F0DA6B080E4D
:10069000D96F15DE02C0D0F001C0CFF0040ECF2715
:1006A000000ED023CFC0E9FF040ED025EA6E400E25
:1006B000EF6ECB51060802E10E0ECB6F036AC851F4
:1006C000F6DC010801E0CB89036AC851700FE96EBE
:1006D0000F0E0320EA6ECBC0EFFFC82B3DD7BEEF55
:1006E00003F004011951000A00010DE0010A14E0B1
:1006F000020A1FE0060A29E0030A2EE00E0A2EE095
:10070000010A32E040D01CC058F40401596B020EBB
:100710000001CA6F72DE38D004011A2D07D0010E15
:100720001C160001CA6B69DE03D00401000168DEFB
:100730002BD004011A2D06D01C820001CA6B5DDE8D
:1007400003D0040100015CDE1FD0020E1A6E1AC431
:1007500024F0CA6B52DE18D091D616D01BC058F4C4
:10076000010ECA6F4ADE10D004011A51010809E3D4
:100770001AC41BF01AC4C7F00001E0D6CA6B3DDEF4
:100780000401000101D03CDE36EF05F01BC0C7F0CC
:1007900004011951000A000105E00A0A0BE0010AF0
:1007A00026E037D00401586B596B020E0001CA6F66
:1007B00024DE30D0C75319E0010EC75D036AF1DCB7
:1007C000016E04011C5DD8A002D000010ED0036AA6
:1007D0001C51290FE96E000E0320EA6EEFCF58F48A
:1007E000010E0001CA6F09DE01D00ADE13D0C75323
:1007F0000EE0036A04011C51290FE96E000E03206C
:10080000EA6E1AC4EFFF0001CA6BF7DD01D0F8DD14
:1008100001D0F6DD36EF05F0C891C7BFC881C79F8C
:10082000C8A117D0D86BC7C0D7F0DA6B080ED96F44
:1008300046DD02C0CAF001C0C9F0040EC927000E8F
:10084000CA23C9C0E9FF040ECA25EA6E880EEF6EFE
:100850000DD0D86BC7C0D7F0DA6B080ED96F2FDD7B
:1008600001C0E9FF040E0224EA6EEF6A036AC75171
:10087000700F016E0F0E032201C0E9FF03C0EAFFF3
:10088000EF90B7EF04F0C891C7BFC881C79FC8A158
:1008900017D0D86BC7C0D7F0DA6B080ED96F0FDD51
:1008A00002C0CAF001C0C9F0040EC927000ECA2355
:1008B000C9C0E9FF040ECA25EA6E840EEF6E0ED0A1
:1008C000D86BC7C0D7F0DA6B080ED96FF8DC01C05F
:1008D000E9FF040E0224EA6E840EEF6EBDEF04F011
:1008E000C891C7BFC881C79FC8A117D0D86BC7C060
:1008F000D7F0DA6B080ED96FE2DC02C0CBF001C092
:10090000CAF0040ECA27000ECB23CAC0E9FF040EAA
:10091000CB25EA6EEFCFC9F00ED0D86BC7C0D7F0A9
:10092000DA6B080ED96FCBDC01C0E9FF040E02249C
:10093000EA6EEFCFC9F0C9AF02D0C9B502D0000E40
:1009400001D0010E016EC7EF04F01CC4D1F096DC9B
:10095000015228E004011951010A000105E0020AD0
:1009600009E0030A0DE01DD01CC4C7F055D7CA6BBF
:1009700044DD18D01CC4C7F086D7CA6B3EDD12D048
:100980000401586B596B1CC4C7F00001A9D7015270
:1009900004E0010E0401586F0001020ECA6F2DDD44
:1009A00001D02EDD36EF05F0FE0E236E120004019D
:1009B0001C2D01D002D01C533FE11FC4C8F01EC43F
:1009C000C7F01951000A00010BE0010A0DE0210AED
:1009D0000FE0010A12E0030A21E0010A24E02AD014
:1009E000010EB76FE1DF27D0C7C0CAF006DD23D004
:1009F000020EB76FB581D8DF1ED0040EEA6E580E16
:100A0000E96EE26A2B0EE16E070E016EE6CFEEFF95
:100A1000012EFCD7070ECA6FF0DC0DD01AC4B6F059
:100A2000CA6BEBDC08D01AC433F01BC432F0CA6BBB
:100A3000E4DC01D0E5DC0401000136EF05F01A6AC0
:100A4000040118517F0B000A000107E0010A07E0CA
:100A5000030A07E0230A07E008D043D607D096D65A
:100A600005D073D703D0A3D701D0CADCF2EF07F0CB
:100A7000D86BC8C0D7F0DA6B080ED96F20DC01C084
:100A8000E9FF040E0224EA6EEFCFCAF0C951020852
:100A900006E1CAAD02D0C96B02D0010EC96FC951BF
:100AA000030819E1840ECA6FD86BC8C0D7F0DA6B9F
:100AB000080ED96F04DC02C0CEF001C0CDF0040EE8
:100AC000CD27000ECE23CDC0E9FF040ECE25EA6E61
:100AD000840EEF6E07D0C92D03D0C80ECA6F02D0A6
:100AE000880ECA6FD890C835036A8FEC00F00900F1
:100AF000F5CF03F0CB6F03C0CCF0D86BC8C0D7F0F4
:100B0000DA6B080ED96F5FEC01F001C0CDF0010E79
:100B10000124016E000E0220036E01C0E9FF040EE5
:100B20000324EA6ECBC0EFFFCCA101D0CA81CCA3D5
:100B300001D0CA83D86BC8C0D7F0DA6B080ED96F62
:100B40005FEC01F001C0E9FF040E0224EA6ECAC0A6
:100B5000EFFF1200036AD651700FE96E0F0E0320EB
:100B6000EA6EEF5219E0D86BD6C0D7F0DA6B080EF8
:100B7000D96F5FEC01F002C0D8F001C0D7F0040ECD
:100B8000D727000ED823D7C0E9FF040ED825EA6E78
:100B9000EFCFD9F0D9AF02D0000E01D0010E016E17
:100BA0001200D1C0D6F0D6DF0152D8B48FD0D86BA6
:100BB000D1C0D7F0DA6B080ED96F5FEC01F002C03C
:100BC000D7F001C0D6F0040ED627000ED723010EB1
:100BD000D625016E000ED721036E01C0E9FF040E79
:100BE0000324EA6ED2C0EFFFD45102081EE1D86B95
:100BF000D1C0D7F0DA6B080ED96F5FEC01F002C0FC
:100C0000D7F001C0D6F0040ED627000ED723D6C0E9
:100C1000E9FF040ED725EA6EEFCFD5F0D5AD02D0AF
:100C2000D46B02D0010ED46F18D0D451040815E152
:100C3000D86BD1C0D7F0DA6B080ED96F5FEC01F03A
:100C400001C0E9FF040E0224EA6EEFCFD5F0D5AD66
:100C500003D0010ED46F01D0D46BD42D03D0480E35
:100C6000D56F02D0080ED56FD86BD1C0D7F0DA6B34
:100C7000080ED96F5FEC01F002C0D7F001C0D6F0CA
:100C8000040ED627000ED723D6C0E9FF040ED725C1
:100C9000EA6ED5C0EFFFD86BD1C0D7F0DA6B080E83
:100CA000D96F5FEC01F002C0D7F001C0D6F0040E9E
:100CB000D627000ED723D6C0E9FF040ED725EA6E4B
:100CC000EF508009EF6E010E016E02D0000E016E32
:100CD0001200B751010A03E0030A06E017D0CA6BFD
:100CE000FDEC01F0B76B13D0EA6A2B0EE96E040E2F
:100CF000E26E180EE16E070E016EE6CFEEFF012EDA
:100D0000FCD7B76BCA6BFDEC01F001D0B76BBCEF41
:100D100006F0D86BC8C0D7F0DA6B080ED96F5FEC5D
:100D200001F002C0CAF001C0C9F0010E0124016E39
:100D3000000E0220036E01C0E9FF040E0324EA6ED8
:100D4000036AEFCF01F003C002F0B2EF06F01E908D
:100D5000020EC86FC96F8CDE12001E80206A020E60
:100D6000C86FD7D701C01FF01F5201E1F0DFC1EFFC
:100D700006F0C75302E1ADD704D0C751020801E124
:100D8000ECD71200C8C06EFFC85303E0040E226EF9
:100D900002D0020E226ED2EF06F01B6A1A6A24C03D
:100DA000C8F0F0D7D1EF07F0C9C0D6F0D3DE0152BA
:100DB00043E0D86BC9C0D7F0DA6B080ED96F5FEC8F
:100DC00001F002C0D2F001C0D1F0040ED127000E14
:100DD000D223020ED125016E000ED221036E01C076
:100DE000E9FF040E0324EA6EECCFD0F0ED52EFCF12
:100DF000CFF0D0C0EAFFCFC0E9FFCBC0E2FFCAC04E
:100E0000E1FFCDC002F0CCC001F0015202E0022AA5
:100E100002D0025206E0E6CFEEFF012EFCD7022EF2
:100E2000FAD7C9C0D1F0CDC0D3F0CCC0D2F0CEC07B
:100E3000D4F0B7DE015002D0000E016EA5EF07F02E
:100E4000CDC0D3F0CCC0D2F0CFC0D5F0CEC0D4F05E
:100E5000D551D35D3EE303E1D251D45D3AE2D051A6
:100E6000D425016ED151D521036ED351035C31E3FA
:100E700003E10150D25D2DE2D051D227D151D323CD
:100E8000D051D427D151D523D15303E1D0510008FB
:100E90001FE2D251D8B4D307D207D2C0D6F0D3C004
:100EA000D7F0D451D8B4D507D407D5C003F0D4C0F7
:100EB000E9FFD5C0EAFFEFCFD8F0D3C0EAFFD2C038
:100EC000E9FFD8C0EFFFD051D8B4D107D007DCD7A5
:100ED00022D0D15303E1D05100081DE2D3C0D7F096
:100EE000D251D22BD8B4D32BD66FD5C003F0D45166
:100EF000D42BD8B4D52BE96E03C0EAFFEFCFD8F0DE
:100F0000D7C0EAFFD6C0E9FFD8C0EFFFD051D8B4B0
:100F1000D107D007DED7CCC001F0CDC002F0BFEFC3
:100F200007F0B4532EE0B4C0C8F0C8513F0802E245
:100F30003F0EC86F020EC96FCB6B340ECA6FCD6BFC
:100F4000C8C0CCF0020ECE6F2FD701521AE0036A50
:100F5000C851340F016E000E032201C0C9F003C056
:100F6000CAF0C851B45DCB6FCD6B340ECC6F03C0EB
:100F7000CFF001C0CEF0D16BCBC0D0F061D7C8515B
:100F8000B45FC4EF07F0CDD7D6EF07F0C7530AE13F
:100F90001A2C03D002EC02F004D01A500208D8B484
:100FA000FCD604D0C751020801E1EDD71200213070
:100FB000C56FC533C5331F0EC517215241E104016A
:100FC00000513C0B0001C66F430E040100170001E5
:100FD000C65134081EE104010451800B01E0046B8A
:100FE00000012DD56D98233C05D0C86B030EC96F49
:100FF0003FDD0ED0C86B020EC96F3ADD2350FE08EC
:1010000007E0D16BD36B23C0D2F0040ED46FC9DDDF
:1010100016D0C651040813E1C76BABDEC86B020ED5
:10102000C96F26DD2350FE080AE0233C01D007D01B
:10103000D16BD36B23C0D2F0010ED46FB2DD1AD0C6
:10104000215004080EE12368C76BA0DF233C01D0C8
:1010500007D0D16BD36B23C0D2F0020ED46FA1DDC9
:1010600009D021B404D0C5C0C7F083DE03D0C5C009
:10107000C7F08CDF90EF08F01EB001D0FDD72050F4
:10108000202AA30FE96E040EEA6ED8B0EA2AEFCF49
:10109000C6F01F50205C01E35ADEC6C001F054EFD9
:1010A00008F01EA009D0E8D701C0C5F0C5514E0810
:1010B00002E193988A78F5D799EF08F0A19A225225
:1010C000D8B437D06852D8B434D068A404D069A456
:1010D00002D015EF01F06DB22CD068AA03D069BA26
:1010E00033EF01F068A203D069B23AEF01F068A0D3
:1010F00003D069B0DDEF01F068A803D069B8F5EF5F
:1011000001F068AC03D069BCFAEF01F0C46B68A6CB
:1011100008D069A606D06CCF21F002EC00F047D7CA
:1011200001D004D0C451C42B0308F1E21EA001D0A9
:10113000B8D730EF00F06D926D6A696A080E6F6E75
:1011400094503009946E226A196AF2BE198EF29E8A
:10115000C7EC01F019BEF28EAFEF08F0ECD7DAEF72
:1011600008F0196AF2BE198EF29EC7EC01F019BEA2
:10117000F28E6D926D6A6D8C00D000D000006D9C77
:10118000140E6F6E696A6D86010E226ECBEF08F049
:101190006DB601D0E6D7222C0BD06DBA09D0686AA3
:1011A000696AA08AC00EF212110E696E020E226EDA
:1011B0001200D4D7EDDF22500208FCE110EF09F055
:1011C0001B50016E12EF09F0EA6AC00EE96EEF5093
:1011D0000EE00F0E016E006A002EFED7012EFBD727
:1011E0008F0E006E002EFED70000EF2EF2D71BEF01
:1011F00009F0F86AD09E078EBE6BC150C00B0F0974
:10120000C16E070EB46EB86BB96B040E936E196A9B
:10121000F2BE198EF29EA9EC01F019BEF28EC9D76A
:10122000B7DFCED7015209E0939A8A7A040EBF6FD6
:0E123000FA0EC06FC9D7BF2FFBD7F2D703004D
:020000040030CA
:0E00000024CE3E1E008781000FC00FE00F408F
:00000001FF
;PIC18F2550
;CRC=8ED4  CREATED="08-Jul-20 13:37"
